:040000006F0020224B
:10000400A1470947B71601401376050898CA11E2BB
:10001400D8CA0100D8CA0605FD17FDF78280211150
:1000240093D765008A0522C83EC013F4F50FF15733
:10003400818F93F7F70F26C606CA2AC43EC28144AD
:10004400A2476397970402478547630CF7008947E3
:10005400630AF70209EF22856537124555370145D2
:1000640031A01245713F0145613F2285513F85040E
:1000740093F4F40FC147E395F4FCD2404244B244F4
:10008400610182800145AD3F22859D3F1245F9BF44
:100094000145BD370145D9B7B7F700E09C4737F7AD
:1000A40000E03E951C47898FE3CE07FE8280371718
:1000B40001401C43B706F1FFFD164111F58FB70649
:1000C400080006C622C426C2D58F1CC3C1471CCB58
:1000D400B71602409C4E05651305059693E7170174
:1000E4009CCEB707014094478144014493F6F6CF70
:1000F40093E6062094C783A6474093E6060123A20D
:10010400D74083A68740BD9A23A4D74083A6C7407F
:1001140093E6060123A6D7401C4393F7F7F093E731
:1001240007011CC3953F81450145D53D37F700E0E4
:1001340037150140832607D1ED9A2328D7D003260B
:1001440007D1832607D11376060293E68602232875
:10015400D7D0832607D193F6F6FDD18E2328D7D0A6
:1001640073005010730050101445C18AE1F618470B
:100174003D8B9306F70013975600158F0A073697A1
:100184001A079385140093F4F50F1306F00B6373A9
:10019400960081449307140013F4F70F3D466373EC
:1001A40086000144A68522853AC0953D02473A85DA
:1001B400E5350247F9779386070C369779F3896713
:1001C400138707F49385140093F4F50F9306000C3A
:1001D4006393D40081449307140013F4F70FC146CA
:1001E4006313D4000144A68522853AC00D3D02471D
:1001F4003A855D3502478967938707F4B7C60B00D4
:100204003E9793860680E31FD7FAB71601409846B7
:10021400418B75DF516513050588BD3D01BF93070B
:10022400200B970100209381A15D13810100130528
:100234008008731005308D457390458017050000C4
:10024400130505DC4D8D7310553073901734B707C3
:100254000020B706002093870700130740299386E0
:10026400060063E1D702B717024013070002D8C3A0
:10027400954637F700E014C3984F1367470398CFA8
:100284007300203010431107910723AEC7FED1BF7E
:00000001FF
